{
  "_format": "hh-sol-artifact-1",
  "contractName": "ShipmentService",
  "sourceName": "contracts/Shipment.sol",
  "abi": [
    {
      "inputs": [],
      "stateMutability": "nonpayable",
      "type": "constructor"
    },
    {
      "anonymous": false,
      "inputs": [
        {
          "indexed": true,
          "internalType": "uint256",
          "name": "orderNumber",
          "type": "uint256"
        },
        {
          "indexed": true,
          "internalType": "address",
          "name": "customer",
          "type": "address"
        },
        {
          "indexed": false,
          "internalType": "string",
          "name": "item",
          "type": "string"
        },
        {
          "indexed": false,
          "internalType": "uint256",
          "name": "quantity",
          "type": "uint256"
        }
      ],
      "name": "OrderCreated",
      "type": "event"
    },
    {
      "inputs": [
        {
          "internalType": "uint256",
          "name": "_orderNumber",
          "type": "uint256"
        },
        {
          "internalType": "uint256",
          "name": "otp",
          "type": "uint256"
        }
      ],
      "name": "ShipAndCreateOtp",
      "outputs": [],
      "stateMutability": "nonpayable",
      "type": "function"
    },
    {
      "inputs": [
        {
          "internalType": "uint256",
          "name": "_orderNumber",
          "type": "uint256"
        },
        {
          "internalType": "uint256",
          "name": "otp",
          "type": "uint256"
        }
      ],
      "name": "acceptOrder",
      "outputs": [],
      "stateMutability": "nonpayable",
      "type": "function"
    },
    {
      "inputs": [
        {
          "internalType": "uint256",
          "name": "_orderNumber",
          "type": "uint256"
        }
      ],
      "name": "cancelOrder",
      "outputs": [],
      "stateMutability": "payable",
      "type": "function"
    },
    {
      "inputs": [
        {
          "internalType": "string",
          "name": "_item",
          "type": "string"
        },
        {
          "internalType": "uint256",
          "name": "_quantity",
          "type": "uint256"
        }
      ],
      "name": "createOrder",
      "outputs": [
        {
          "internalType": "uint256",
          "name": "",
          "type": "uint256"
        }
      ],
      "stateMutability": "payable",
      "type": "function"
    },
    {
      "inputs": [
        {
          "internalType": "uint256",
          "name": "",
          "type": "uint256"
        }
      ],
      "name": "customerOrders",
      "outputs": [
        {
          "internalType": "address",
          "name": "",
          "type": "address"
        }
      ],
      "stateMutability": "view",
      "type": "function"
    },
    {
      "inputs": [],
      "name": "getDeliveredOrders",
      "outputs": [
        {
          "internalType": "uint256[]",
          "name": "",
          "type": "uint256[]"
        }
      ],
      "stateMutability": "view",
      "type": "function"
    },
    {
      "inputs": [
        {
          "internalType": "uint256",
          "name": "_orderNumber",
          "type": "uint256"
        }
      ],
      "name": "getItemsForOrder",
      "outputs": [
        {
          "internalType": "string[]",
          "name": "",
          "type": "string[]"
        }
      ],
      "stateMutability": "view",
      "type": "function"
    },
    {
      "inputs": [
        {
          "internalType": "uint256",
          "name": "_orderNumber",
          "type": "uint256"
        }
      ],
      "name": "getOTP",
      "outputs": [
        {
          "internalType": "uint256",
          "name": "",
          "type": "uint256"
        }
      ],
      "stateMutability": "view",
      "type": "function"
    },
    {
      "inputs": [
        {
          "internalType": "uint256",
          "name": "_orderNumber",
          "type": "uint256"
        }
      ],
      "name": "getOrderStatus",
      "outputs": [
        {
          "internalType": "enum ShipmentService.OrderStatuses",
          "name": "",
          "type": "uint8"
        }
      ],
      "stateMutability": "view",
      "type": "function"
    },
    {
      "inputs": [
        {
          "internalType": "address",
          "name": "_addr",
          "type": "address"
        }
      ],
      "name": "getOrdersForAddress",
      "outputs": [
        {
          "internalType": "uint256[]",
          "name": "",
          "type": "uint256[]"
        }
      ],
      "stateMutability": "view",
      "type": "function"
    },
    {
      "inputs": [],
      "name": "getProcessingOrders",
      "outputs": [
        {
          "internalType": "uint256[]",
          "name": "",
          "type": "uint256[]"
        }
      ],
      "stateMutability": "view",
      "type": "function"
    },
    {
      "inputs": [
        {
          "internalType": "uint256",
          "name": "_orderNumber",
          "type": "uint256"
        },
        {
          "internalType": "string",
          "name": "_item",
          "type": "string"
        }
      ],
      "name": "getQuantitiesOfItemForOrder",
      "outputs": [
        {
          "internalType": "uint256",
          "name": "",
          "type": "uint256"
        }
      ],
      "stateMutability": "view",
      "type": "function"
    },
    {
      "inputs": [],
      "name": "getShippedOrders",
      "outputs": [
        {
          "internalType": "uint256[]",
          "name": "",
          "type": "uint256[]"
        }
      ],
      "stateMutability": "view",
      "type": "function"
    },
    {
      "inputs": [
        {
          "internalType": "uint256",
          "name": "",
          "type": "uint256"
        },
        {
          "internalType": "uint256",
          "name": "",
          "type": "uint256"
        }
      ],
      "name": "itemsForOrder",
      "outputs": [
        {
          "internalType": "string",
          "name": "",
          "type": "string"
        }
      ],
      "stateMutability": "view",
      "type": "function"
    },
    {
      "inputs": [
        {
          "internalType": "uint256",
          "name": "",
          "type": "uint256"
        }
      ],
      "name": "orderCancellationRefunds",
      "outputs": [
        {
          "internalType": "uint256",
          "name": "",
          "type": "uint256"
        }
      ],
      "stateMutability": "view",
      "type": "function"
    },
    {
      "inputs": [
        {
          "internalType": "uint256",
          "name": "",
          "type": "uint256"
        }
      ],
      "name": "orderCosts",
      "outputs": [
        {
          "internalType": "uint256",
          "name": "",
          "type": "uint256"
        }
      ],
      "stateMutability": "view",
      "type": "function"
    },
    {
      "inputs": [],
      "name": "orderNumber",
      "outputs": [
        {
          "internalType": "uint256",
          "name": "",
          "type": "uint256"
        }
      ],
      "stateMutability": "view",
      "type": "function"
    },
    {
      "inputs": [
        {
          "internalType": "uint256",
          "name": "",
          "type": "uint256"
        }
      ],
      "name": "orderOTP",
      "outputs": [
        {
          "internalType": "uint256",
          "name": "",
          "type": "uint256"
        }
      ],
      "stateMutability": "view",
      "type": "function"
    },
    {
      "inputs": [
        {
          "internalType": "uint256",
          "name": "",
          "type": "uint256"
        }
      ],
      "name": "orderStatus",
      "outputs": [
        {
          "internalType": "enum ShipmentService.OrderStatuses",
          "name": "",
          "type": "uint8"
        }
      ],
      "stateMutability": "view",
      "type": "function"
    },
    {
      "inputs": [],
      "name": "owner",
      "outputs": [
        {
          "internalType": "address",
          "name": "",
          "type": "address"
        }
      ],
      "stateMutability": "view",
      "type": "function"
    },
    {
      "inputs": [
        {
          "internalType": "uint256",
          "name": "",
          "type": "uint256"
        },
        {
          "internalType": "string",
          "name": "",
          "type": "string"
        }
      ],
      "name": "quantitiesOfItemForOrder",
      "outputs": [
        {
          "internalType": "uint256",
          "name": "",
          "type": "uint256"
        }
      ],
      "stateMutability": "view",
      "type": "function"
    }
  ],
  "bytecode": "0x6080604052600060015534801561001557600080fd5b50336000806101000a81548173ffffffffffffffffffffffffffffffffffffffff021916908373ffffffffffffffffffffffffffffffffffffffff160217905550613180806100656000396000f3fe60806040526004361061012a5760003560e01c80637e832c10116100ab5780639bb1f7491161006f5780639bb1f74914610436578063b04dd81b14610461578063b1c6257d1461048c578063bff49450146104c9578063da274e7214610506578063f5f4cc83146105435761012a565b80637e832c10146103385780638553326b14610361578063877762761461039e5780638da5cb5b146103db57806397de706f146104065761012a565b806348348480116100f2578063483484801461023a578063514fcac7146102775780635489d2851461029357806366ef3eaa146102be5780637e5253d7146102fb5761012a565b806325108bbe1461012f578063295b0f7c1461016c5780633d05a334146101a9578063411f4edc146101d257806345fa8aae146101fd575b600080fd5b34801561013b57600080fd5b5061015660048036038101906101519190611e41565b610580565b6040516101639190611f36565b60405180910390f35b34801561017857600080fd5b50610193600480360381019061018e9190611f84565b610695565b6040516101a09190611fc0565b60405180910390f35b3480156101b557600080fd5b506101d060048036038101906101cb9190611fdb565b6106ad565b005b3480156101de57600080fd5b506101e76108f8565b6040516101f49190611f36565b60405180910390f35b34801561020957600080fd5b50610224600480360381019061021f9190611f84565b610a7f565b6040516102319190612092565b60405180910390f35b34801561024657600080fd5b50610261600480360381019061025c9190611f84565b610aa9565b60405161026e9190611fc0565b60405180910390f35b610291600480360381019061028c9190611f84565b610c63565b005b34801561029f57600080fd5b506102a8610f6f565b6040516102b59190611f36565b60405180910390f35b3480156102ca57600080fd5b506102e560048036038101906102e091906121f3565b6110f6565b6040516102f29190611fc0565b60405180910390f35b34801561030757600080fd5b50610322600480360381019061031d91906121f3565b6111b6565b60405161032f9190611fc0565b60405180910390f35b34801561034457600080fd5b5061035f600480360381019061035a9190611fdb565b6111f1565b005b34801561036d57600080fd5b5061038860048036038101906103839190611f84565b6114bf565b6040516103959190611fc0565b60405180910390f35b3480156103aa57600080fd5b506103c560048036038101906103c09190611f84565b6114d7565b6040516103d2919061225e565b60405180910390f35b3480156103e757600080fd5b506103f061150a565b6040516103fd919061225e565b60405180910390f35b610420600480360381019061041b9190612279565b61152e565b60405161042d9190611fc0565b60405180910390f35b34801561044257600080fd5b5061044b6118b1565b6040516104589190611f36565b60405180910390f35b34801561046d57600080fd5b50610476611a38565b6040516104839190611fc0565b60405180910390f35b34801561049857600080fd5b506104b360048036038101906104ae9190611fdb565b611a3e565b6040516104c09190612354565b60405180910390f35b3480156104d557600080fd5b506104f060048036038101906104eb9190611f84565b611af7565b6040516104fd9190612092565b60405180910390f35b34801561051257600080fd5b5061052d60048036038101906105289190611f84565b611b17565b60405161053a9190611fc0565b60405180910390f35b34801561054f57600080fd5b5061056a60048036038101906105659190611f84565b611b2f565b6040516105779190612482565b60405180910390f35b6060600060015467ffffffffffffffff8111156105a05761059f6120c8565b5b6040519080825280602002602001820160405280156105ce5781602001602082028036833780820191505090505b509050600080600190505b600154811161068a578473ffffffffffffffffffffffffffffffffffffffff166002600083815260200190815260200160002060009054906101000a900473ffffffffffffffffffffffffffffffffffffffff1673ffffffffffffffffffffffffffffffffffffffff1603610677578083838151811061065c5761065b6124a4565b5b602002602001018181525050818061067390612502565b9250505b808061068290612502565b9150506105d9565b508192505050919050565b60066020528060005260406000206000915090505481565b60008054906101000a900473ffffffffffffffffffffffffffffffffffffffff1673ffffffffffffffffffffffffffffffffffffffff163373ffffffffffffffffffffffffffffffffffffffff160361073b576040517f08c379a000000000000000000000000000000000000000000000000000000000815260040161073290612596565b60405180910390fd5b3373ffffffffffffffffffffffffffffffffffffffff166002600084815260200190815260200160002060009054906101000a900473ffffffffffffffffffffffffffffffffffffffff1673ffffffffffffffffffffffffffffffffffffffff16146107dc576040517f08c379a00000000000000000000000000000000000000000000000000000000081526004016107d390612628565b60405180910390fd5b600060048111156107f0576107ef61201b565b5b6005600084815260200190815260200160002060009054906101000a900460ff1660048111156108235761082261201b565b5b03610863576040517f08c379a000000000000000000000000000000000000000000000000000000000815260040161085a90612694565b60405180910390fd5b806006600084815260200190815260200160002054146108b8576040517f08c379a00000000000000000000000000000000000000000000000000000000081526004016108af90612700565b60405180910390fd5b60036005600084815260200190815260200160002060006101000a81548160ff021916908360048111156108ef576108ee61201b565b5b02179055505050565b606060008054906101000a900473ffffffffffffffffffffffffffffffffffffffff1673ffffffffffffffffffffffffffffffffffffffff163373ffffffffffffffffffffffffffffffffffffffff1614610988576040517f08c379a000000000000000000000000000000000000000000000000000000000815260040161097f90612792565b60405180910390fd5b600060015467ffffffffffffffff8111156109a6576109a56120c8565b5b6040519080825280602002602001820160405280156109d45781602001602082028036833780820191505090505b509050600080600190505b6001548111610a7657600160048111156109fc576109fb61201b565b5b6005600083815260200190815260200160002060009054906101000a900460ff166004811115610a2f57610a2e61201b565b5b03610a635780838381518110610a4857610a476124a4565b5b6020026020010181815250508180610a5f90612502565b9250505b8080610a6e90612502565b9150506109df565b50819250505090565b60006005600083815260200190815260200160002060009054906101000a900460ff169050919050565b60008060009054906101000a900473ffffffffffffffffffffffffffffffffffffffff1673ffffffffffffffffffffffffffffffffffffffff163373ffffffffffffffffffffffffffffffffffffffff1603610b3a576040517f08c379a0000000000000000000000000000000000000000000000000000000008152600401610b3190612596565b60405180910390fd5b60006004811115610b4e57610b4d61201b565b5b6005600084815260200190815260200160002060009054906101000a900460ff166004811115610b8157610b8061201b565b5b03610bc1576040517f08c379a0000000000000000000000000000000000000000000000000000000008152600401610bb890612694565b60405180910390fd5b60026004811115610bd557610bd461201b565b5b6005600084815260200190815260200160002060009054906101000a900460ff166004811115610c0857610c0761201b565b5b14610c48576040517f08c379a0000000000000000000000000000000000000000000000000000000008152600401610c3f906127fe565b60405180910390fd5b60066000838152602001908152602001600020549050919050565b60008054906101000a900473ffffffffffffffffffffffffffffffffffffffff1673ffffffffffffffffffffffffffffffffffffffff163373ffffffffffffffffffffffffffffffffffffffff1603610cf1576040517f08c379a0000000000000000000000000000000000000000000000000000000008152600401610ce890612596565b60405180910390fd5b3373ffffffffffffffffffffffffffffffffffffffff166002600083815260200190815260200160002060009054906101000a900473ffffffffffffffffffffffffffffffffffffffff1673ffffffffffffffffffffffffffffffffffffffff1614610d92576040517f08c379a0000000000000000000000000000000000000000000000000000000008152600401610d8990612890565b60405180910390fd5b60006004811115610da657610da561201b565b5b6005600083815260200190815260200160002060009054906101000a900460ff166004811115610dd957610dd861201b565b5b03610e19576040517f08c379a0000000000000000000000000000000000000000000000000000000008152600401610e1090612694565b60405180910390fd5b60016004811115610e2d57610e2c61201b565b5b6005600083815260200190815260200160002060009054906101000a900460ff166004811115610e6057610e5f61201b565b5b14610ea0576040517f08c379a0000000000000000000000000000000000000000000000000000000008152600401610e97906128fc565b60405180910390fd5b60006064605a6007600085815260200190815260200160002054610ec4919061291c565b610ece919061298d565b905060046005600084815260200190815260200160002060006101000a81548160ff02191690836004811115610f0757610f0661201b565b5b02179055503373ffffffffffffffffffffffffffffffffffffffff166108fc829081150290604051600060405180830381858888f19350505050158015610f52573d6000803e3d6000fd5b508060086000848152602001908152602001600020819055505050565b606060008054906101000a900473ffffffffffffffffffffffffffffffffffffffff1673ffffffffffffffffffffffffffffffffffffffff163373ffffffffffffffffffffffffffffffffffffffff1614610fff576040517f08c379a0000000000000000000000000000000000000000000000000000000008152600401610ff690612792565b60405180910390fd5b600060015467ffffffffffffffff81111561101d5761101c6120c8565b5b60405190808252806020026020018201604052801561104b5781602001602082028036833780820191505090505b509050600080600190505b60015481116110ed57600260048111156110735761107261201b565b5b6005600083815260200190815260200160002060009054906101000a900460ff1660048111156110a6576110a561201b565b5b036110da57808383815181106110bf576110be6124a4565b5b60200260200101818152505081806110d690612502565b9250505b80806110e590612502565b915050611056565b50819250505090565b600080600481111561110b5761110a61201b565b5b6005600085815260200190815260200160002060009054906101000a900460ff16600481111561113e5761113d61201b565b5b0361117e576040517f08c379a000000000000000000000000000000000000000000000000000000000815260040161117590612694565b60405180910390fd5b600460008481526020019081526020016000208260405161119f91906129fa565b908152602001604051809103902054905092915050565b600460205281600052604060002081805160208101820180518482526020830160208501208183528095505050505050600091509150505481565b60008054906101000a900473ffffffffffffffffffffffffffffffffffffffff1673ffffffffffffffffffffffffffffffffffffffff163373ffffffffffffffffffffffffffffffffffffffff161461127f576040517f08c379a000000000000000000000000000000000000000000000000000000000815260040161127690612792565b60405180910390fd5b600060048111156112935761129261201b565b5b6005600084815260200190815260200160002060009054906101000a900460ff1660048111156112c6576112c561201b565b5b03611306576040517f08c379a00000000000000000000000000000000000000000000000000000000081526004016112fd90612694565b60405180910390fd5b6003600481111561131a5761131961201b565b5b6005600084815260200190815260200160002060009054906101000a900460ff16600481111561134d5761134c61201b565b5b0361138d576040517f08c379a000000000000000000000000000000000000000000000000000000000815260040161138490612a5d565b60405180910390fd5b600260048111156113a1576113a061201b565b5b6005600084815260200190815260200160002060009054906101000a900460ff1660048111156113d4576113d361201b565b5b03611414576040517f08c379a000000000000000000000000000000000000000000000000000000000815260040161140b90612ac9565b60405180910390fd5b6103e78110158015611428575061270f8111155b611467576040517f08c379a000000000000000000000000000000000000000000000000000000000815260040161145e90612b35565b60405180910390fd5b60026005600084815260200190815260200160002060006101000a81548160ff0219169083600481111561149e5761149d61201b565b5b02179055508060066000848152602001908152602001600020819055505050565b60076020528060005260406000206000915090505481565b60026020528060005260406000206000915054906101000a900473ffffffffffffffffffffffffffffffffffffffff1681565b60008054906101000a900473ffffffffffffffffffffffffffffffffffffffff1681565b60008060009054906101000a900473ffffffffffffffffffffffffffffffffffffffff1673ffffffffffffffffffffffffffffffffffffffff163373ffffffffffffffffffffffffffffffffffffffff16036115bf576040517f08c379a00000000000000000000000000000000000000000000000000000000081526004016115b690612596565b60405180910390fd5b6000835111611603576040517f08c379a00000000000000000000000000000000000000000000000000000000081526004016115fa90612ba1565b60405180910390fd5b60008211611646576040517f08c379a000000000000000000000000000000000000000000000000000000000815260040161163d90612c33565b60405180910390fd5b60006116528484611ca2565b905080341015611697576040517f08c379a000000000000000000000000000000000000000000000000000000000815260040161168e90612cc5565b60405180910390fd5b600160008154809291906116aa90612502565b91905055503360026000600154815260200190815260200160002060006101000a81548173ffffffffffffffffffffffffffffffffffffffff021916908373ffffffffffffffffffffffffffffffffffffffff1602179055506003600060015481526020019081526020016000208490806001815401808255809150506001900390600052602060002001600090919091909150908161174a9190612ef1565b50826004600060015481526020019081526020016000208560405161176f91906129fa565b9081526020016040518091039020600082825461178c9190612fc3565b92505081905550600160056000600154815260200190815260200160002060006101000a81548160ff021916908360048111156117cc576117cb61201b565b5b021790555060008054906101000a900473ffffffffffffffffffffffffffffffffffffffff1673ffffffffffffffffffffffffffffffffffffffff166108fc349081150290604051600060405180830381858888f19350505050158015611837573d6000803e3d6000fd5b5080600760006001548152602001908152602001600020819055503373ffffffffffffffffffffffffffffffffffffffff166001547feeb5d6b56077d478228f63f7be44598af0dd7dee9cc12fdad576aaa736fe4adb868660405161189d929190612ff7565b60405180910390a360015491505092915050565b606060008054906101000a900473ffffffffffffffffffffffffffffffffffffffff1673ffffffffffffffffffffffffffffffffffffffff163373ffffffffffffffffffffffffffffffffffffffff1614611941576040517f08c379a000000000000000000000000000000000000000000000000000000000815260040161193890612792565b60405180910390fd5b600060015467ffffffffffffffff81111561195f5761195e6120c8565b5b60405190808252806020026020018201604052801561198d5781602001602082028036833780820191505090505b509050600080600190505b6001548111611a2f57600360048111156119b5576119b461201b565b5b6005600083815260200190815260200160002060009054906101000a900460ff1660048111156119e8576119e761201b565b5b03611a1c5780838381518110611a0157611a006124a4565b5b6020026020010181815250508180611a1890612502565b9250505b8080611a2790612502565b915050611998565b50819250505090565b60015481565b60036020528160005260406000208181548110611a5a57600080fd5b90600052602060002001600091509150508054611a7690612d14565b80601f0160208091040260200160405190810160405280929190818152602001828054611aa290612d14565b8015611aef5780601f10611ac457610100808354040283529160200191611aef565b820191906000526020600020905b815481529060010190602001808311611ad257829003601f168201915b505050505081565b60056020528060005260406000206000915054906101000a900460ff1681565b60086020528060005260406000206000915090505481565b606060006004811115611b4557611b4461201b565b5b6005600084815260200190815260200160002060009054906101000a900460ff166004811115611b7857611b7761201b565b5b03611bb8576040517f08c379a0000000000000000000000000000000000000000000000000000000008152600401611baf90612694565b60405180910390fd5b60036000838152602001908152602001600020805480602002602001604051908101604052809291908181526020016000905b82821015611c97578382906000526020600020018054611c0a90612d14565b80601f0160208091040260200160405190810160405280929190818152602001828054611c3690612d14565b8015611c835780601f10611c5857610100808354040283529160200191611c83565b820191906000526020600020905b815481529060010190602001808311611c6657829003601f168201915b505050505081526020019060010190611beb565b505050509050919050565b600080604051602001611cb490613073565b6040516020818303038152906040528051906020012084604051602001611cdb91906129fa565b6040516020818303038152906040528051906020012003611cff5760019050611dba565b604051602001611d0e906130d4565b6040516020818303038152906040528051906020012084604051602001611d3591906129fa565b6040516020818303038152906040528051906020012003611d595760039050611db9565b604051602001611d6890613135565b6040516020818303038152906040528051906020012084604051602001611d8f91906129fa565b6040516020818303038152906040528051906020012003611db35760049050611db8565b600290505b5b5b8281611dc6919061291c565b91505092915050565b6000604051905090565b600080fd5b600080fd5b600073ffffffffffffffffffffffffffffffffffffffff82169050919050565b6000611e0e82611de3565b9050919050565b611e1e81611e03565b8114611e2957600080fd5b50565b600081359050611e3b81611e15565b92915050565b600060208284031215611e5757611e56611dd9565b5b6000611e6584828501611e2c565b91505092915050565b600081519050919050565b600082825260208201905092915050565b6000819050602082019050919050565b6000819050919050565b611ead81611e9a565b82525050565b6000611ebf8383611ea4565b60208301905092915050565b6000602082019050919050565b6000611ee382611e6e565b611eed8185611e79565b9350611ef883611e8a565b8060005b83811015611f29578151611f108882611eb3565b9750611f1b83611ecb565b925050600181019050611efc565b5085935050505092915050565b60006020820190508181036000830152611f508184611ed8565b905092915050565b611f6181611e9a565b8114611f6c57600080fd5b50565b600081359050611f7e81611f58565b92915050565b600060208284031215611f9a57611f99611dd9565b5b6000611fa884828501611f6f565b91505092915050565b611fba81611e9a565b82525050565b6000602082019050611fd56000830184611fb1565b92915050565b60008060408385031215611ff257611ff1611dd9565b5b600061200085828601611f6f565b925050602061201185828601611f6f565b9150509250929050565b7f4e487b7100000000000000000000000000000000000000000000000000000000600052602160045260246000fd5b6005811061205b5761205a61201b565b5b50565b600081905061206c8261204a565b919050565b600061207c8261205e565b9050919050565b61208c81612071565b82525050565b60006020820190506120a76000830184612083565b92915050565b600080fd5b600080fd5b6000601f19601f8301169050919050565b7f4e487b7100000000000000000000000000000000000000000000000000000000600052604160045260246000fd5b612100826120b7565b810181811067ffffffffffffffff8211171561211f5761211e6120c8565b5b80604052505050565b6000612132611dcf565b905061213e82826120f7565b919050565b600067ffffffffffffffff82111561215e5761215d6120c8565b5b612167826120b7565b9050602081019050919050565b82818337600083830152505050565b600061219661219184612143565b612128565b9050828152602081018484840111156121b2576121b16120b2565b5b6121bd848285612174565b509392505050565b600082601f8301126121da576121d96120ad565b5b81356121ea848260208601612183565b91505092915050565b6000806040838503121561220a57612209611dd9565b5b600061221885828601611f6f565b925050602083013567ffffffffffffffff81111561223957612238611dde565b5b612245858286016121c5565b9150509250929050565b61225881611e03565b82525050565b6000602082019050612273600083018461224f565b92915050565b600080604083850312156122905761228f611dd9565b5b600083013567ffffffffffffffff8111156122ae576122ad611dde565b5b6122ba858286016121c5565b92505060206122cb85828601611f6f565b9150509250929050565b600081519050919050565b600082825260208201905092915050565b60005b8381101561230f5780820151818401526020810190506122f4565b60008484015250505050565b6000612326826122d5565b61233081856122e0565b93506123408185602086016122f1565b612349816120b7565b840191505092915050565b6000602082019050818103600083015261236e818461231b565b905092915050565b600081519050919050565b600082825260208201905092915050565b6000819050602082019050919050565b600082825260208201905092915050565b60006123be826122d5565b6123c881856123a2565b93506123d88185602086016122f1565b6123e1816120b7565b840191505092915050565b60006123f883836123b3565b905092915050565b6000602082019050919050565b600061241882612376565b6124228185612381565b93508360208202850161243485612392565b8060005b85811015612470578484038952815161245185826123ec565b945061245c83612400565b925060208a01995050600181019050612438565b50829750879550505050505092915050565b6000602082019050818103600083015261249c818461240d565b905092915050565b7f4e487b7100000000000000000000000000000000000000000000000000000000600052603260045260246000fd5b7f4e487b7100000000000000000000000000000000000000000000000000000000600052601160045260246000fd5b600061250d82611e9a565b91507fffffffffffffffffffffffffffffffffffffffffffffffffffffffffffffffff820361253f5761253e6124d3565b5b600182019050919050565b7f4f776e65722063616e6e6f7420706572666f726d207468697320616374696f6e600082015250565b60006125806020836122e0565b915061258b8261254a565b602082019050919050565b600060208201905081810360008301526125af81612573565b9050919050565b7f4f6e6c792061646472657373207468617420706c6163656420746865206f726460008201527f65722063616e206163636570742069742e000000000000000000000000000000602082015250565b60006126126031836122e0565b915061261d826125b6565b604082019050919050565b6000602082019050818103600083015261264181612605565b9050919050565b7f4f72646572206e756d62657220697320696e76616c6964000000000000000000600082015250565b600061267e6017836122e0565b915061268982612648565b602082019050919050565b600060208201905081810360008301526126ad81612671565b9050919050565b7f57726f6e67204f54502c20706c656173652074727920616761696e0000000000600082015250565b60006126ea601b836122e0565b91506126f5826126b4565b602082019050919050565b60006020820190508181036000830152612719816126dd565b9050919050565b7f4f6e6c7920746865204f776e65722063616e20706572666f726d20746869732060008201527f616374696f6e0000000000000000000000000000000000000000000000000000602082015250565b600061277c6026836122e0565b915061278782612720565b604082019050919050565b600060208201905081810360008301526127ab8161276f565b9050919050565b7f4f7264657220686173206e6f74206265656e2073686970706564207965740000600082015250565b60006127e8601e836122e0565b91506127f3826127b2565b602082019050919050565b60006020820190508181036000830152612817816127db565b9050919050565b7f4f6e6c792061646472657373207468617420706c6163656420746865206f726460008201527f65722063616e2063616e63656c2069742e000000000000000000000000000000602082015250565b600061287a6031836122e0565b91506128858261281e565b604082019050919050565b600060208201905081810360008301526128a98161286d565b9050919050565b7f4f726465722063616e6e6f742062652063616e63656c65640000000000000000600082015250565b60006128e66018836122e0565b91506128f1826128b0565b602082019050919050565b60006020820190508181036000830152612915816128d9565b9050919050565b600061292782611e9a565b915061293283611e9a565b925082820261294081611e9a565b91508282048414831517612957576129566124d3565b5b5092915050565b7f4e487b7100000000000000000000000000000000000000000000000000000000600052601260045260246000fd5b600061299882611e9a565b91506129a383611e9a565b9250826129b3576129b261295e565b5b828204905092915050565b600081905092915050565b60006129d4826122d5565b6129de81856129be565b93506129ee8185602086016122f1565b80840191505092915050565b6000612a0682846129c9565b915081905092915050565b7f4f7264657220686173206265656e2064656c6976657265640000000000000000600082015250565b6000612a476018836122e0565b9150612a5282612a11565b602082019050919050565b60006020820190508181036000830152612a7681612a3a565b9050919050565b7f4f726465722068617320616c7265616479206265656e20736869707065640000600082015250565b6000612ab3601e836122e0565b9150612abe82612a7d565b602082019050919050565b60006020820190508181036000830152612ae281612aa6565b9050919050565b7f496e76616c6964204f545020656e74657265642e000000000000000000000000600082015250565b6000612b1f6014836122e0565b9150612b2a82612ae9565b602082019050919050565b60006020820190508181036000830152612b4e81612b12565b9050919050565b7f4974656d206e616d652063616e6e6f7420626520656d70747900000000000000600082015250565b6000612b8b6019836122e0565b9150612b9682612b55565b602082019050919050565b60006020820190508181036000830152612bba81612b7e565b9050919050565b7f5175616e74697479206d7573742062652067726561746572207468616e207a6560008201527f726f000000000000000000000000000000000000000000000000000000000000602082015250565b6000612c1d6022836122e0565b9150612c2882612bc1565b604082019050919050565b60006020820190508181036000830152612c4c81612c10565b9050919050565b7f496e73756666696369656e74207061796d656e7420666f7220746865206f726460008201527f6572000000000000000000000000000000000000000000000000000000000000602082015250565b6000612caf6022836122e0565b9150612cba82612c53565b604082019050919050565b60006020820190508181036000830152612cde81612ca2565b9050919050565b7f4e487b7100000000000000000000000000000000000000000000000000000000600052602260045260246000fd5b60006002820490506001821680612d2c57607f821691505b602082108103612d3f57612d3e612ce5565b5b50919050565b60008190508160005260206000209050919050565b60006020601f8301049050919050565b600082821b905092915050565b600060088302612da77fffffffffffffffffffffffffffffffffffffffffffffffffffffffffffffffff82612d6a565b612db18683612d6a565b95508019841693508086168417925050509392505050565b6000819050919050565b6000612dee612de9612de484611e9a565b612dc9565b611e9a565b9050919050565b6000819050919050565b612e0883612dd3565b612e1c612e1482612df5565b848454612d77565b825550505050565b600090565b612e31612e24565b612e3c818484612dff565b505050565b5b81811015612e6057612e55600082612e29565b600181019050612e42565b5050565b601f821115612ea557612e7681612d45565b612e7f84612d5a565b81016020851015612e8e578190505b612ea2612e9a85612d5a565b830182612e41565b50505b505050565b600082821c905092915050565b6000612ec860001984600802612eaa565b1980831691505092915050565b6000612ee18383612eb7565b9150826002028217905092915050565b612efa826122d5565b67ffffffffffffffff811115612f1357612f126120c8565b5b612f1d8254612d14565b612f28828285612e64565b600060209050601f831160018114612f5b5760008415612f49578287015190505b612f538582612ed5565b865550612fbb565b601f198416612f6986612d45565b60005b82811015612f9157848901518255600182019150602085019450602081019050612f6c565b86831015612fae5784890151612faa601f891682612eb7565b8355505b6001600288020188555050505b505050505050565b6000612fce82611e9a565b9150612fd983611e9a565b9250828201905080821115612ff157612ff06124d3565b5b92915050565b60006040820190508181036000830152613011818561231b565b90506130206020830184611fb1565b9392505050565b7f6672756974000000000000000000000000000000000000000000000000000000600082015250565b600061305d6005836129be565b915061306882613027565b600582019050919050565b600061307e82613050565b9150819050919050565b7f6675726e69747572650000000000000000000000000000000000000000000000600082015250565b60006130be6009836129be565b91506130c982613088565b600982019050919050565b60006130df826130b1565b9150819050919050565b7f636f6d7075746572000000000000000000000000000000000000000000000000600082015250565b600061311f6008836129be565b915061312a826130e9565b600882019050919050565b600061314082613112565b915081905091905056fea26469706673582212201d1bfa400f28c945a81de0e9a1c6991aa29fd42023cacadd819838528a618a7a64736f6c63430008180033",
  "linkReferences": {},
  "deployedLinkReferences": {}
}